{"abi":[{"type":"constructor","inputs":[{"name":"_contractOwner","type":"address","internalType":"address"},{"name":"_diamondCutFacet","type":"address","internalType":"address"}],"stateMutability":"payable"},{"type":"fallback","stateMutability":"payable"},{"type":"receive","stateMutability":"payable"},{"type":"function","name":"example","inputs":[],"outputs":[{"name":"","type":"string","internalType":"string"}],"stateMutability":"pure"},{"type":"event","name":"DiamondCut","inputs":[{"name":"_diamondCut","type":"tuple[]","indexed":false,"internalType":"struct IDiamondCut.FacetCut[]","components":[{"name":"facetAddress","type":"address","internalType":"address"},{"name":"action","type":"uint8","internalType":"enum IDiamondCut.FacetCutAction"},{"name":"functionSelectors","type":"bytes4[]","internalType":"bytes4[]"}]},{"name":"_init","type":"address","indexed":false,"internalType":"address"},{"name":"_calldata","type":"bytes","indexed":false,"internalType":"bytes"}],"anonymous":false},{"type":"event","name":"OwnershipTransferred","inputs":[{"name":"previousOwner","type":"address","indexed":true,"internalType":"address"},{"name":"newOwner","type":"address","indexed":true,"internalType":"address"}],"anonymous":false},{"type":"error","name":"EmptyCalldata","inputs":[]},{"type":"error","name":"ImmutableFunction","inputs":[{"name":"selector","type":"bytes4","internalType":"bytes4"}]},{"type":"error","name":"InValidFacetCutAction","inputs":[]},{"type":"error","name":"InitCallFailed","inputs":[]},{"type":"error","name":"MustBeZeroAddress","inputs":[]},{"type":"error","name":"NoCode","inputs":[]},{"type":"error","name":"NoSelectorsInFacet","inputs":[]},{"type":"error","name":"NoZeroAddress","inputs":[]},{"type":"error","name":"NonEmptyCalldata","inputs":[]},{"type":"error","name":"NonExistentSelector","inputs":[{"name":"selector","type":"bytes4","internalType":"bytes4"}]},{"type":"error","name":"SameSelectorReplacement","inputs":[{"name":"selector","type":"bytes4","internalType":"bytes4"}]},{"type":"error","name":"SelectorExists","inputs":[{"name":"selector","type":"bytes4","internalType":"bytes4"}]}],"bytecode":{"object":"0x60806040526040516110a63803806110a683398101604081905261002291610c90565b61002b8261012e565b6040805160018082528183019092525f91816020015b60408051606080820183525f8083526020830152918101919091528152602001906001900390816100415750506040805160018082528183019092529192505f919060208083019080368337019050509050631f931c1c60e01b815f815181106100ad576100ad610cc1565b6001600160e01b031990921660209283029190910182015260408051606081019091526001600160a01b03851681529081015f815260200182815250825f815181106100fb576100fb610cc1565b6020026020010181905250610125825f60405180602001604052805f8152506101af60201b60201c565b50505050610ebc565b7fc8fcad8db84d3cc18b4c41d551ea0ee66dd599cde068d998e57d5e09332c132080546001600160a01b031981166001600160a01b038481169182179093556040515f5160206110865f395f51905f52939092169182907f8be0079c531659141344cd1fd0a4f28419497f9722a3daafe3b4186f6b6457e0905f90a3505050565b5f5b8351811015610337575f8482815181106101cd576101cd610cc1565b60200260200101516020015190505f60028111156101ed576101ed610cd5565b8160028111156101ff576101ff610cd5565b036102525761024d85838151811061021957610219610cc1565b60200260200101515f015186848151811061023657610236610cc1565b60200260200101516040015161038260201b60201c565b61032e565b600181600281111561026657610266610cd5565b036102b45761024d85838151811061028057610280610cc1565b60200260200101515f015186848151811061029d5761029d610cc1565b60200260200101516040015161054560201b60201c565b60028160028111156102c8576102c8610cd5565b036103165761024d8583815181106102e2576102e2610cc1565b60200260200101515f01518684815181106102ff576102ff610cc1565b60200260200101516040015161070c60201b60201c565b60405162c5e5d760e31b815260040160405180910390fd5b506001016101b1565b507f8faa70878671ccd212d20771b795c50af8fd3ff6cf27f4bde57e5d4de0aeb67383838360405161036b93929190610d17565b60405180910390a161037d82826107cd565b505050565b5f8151116103a35760405163092d2fe560e41b815260040160405180910390fd5b5f5160206110865f395f51905f526001600160a01b0383166103d85760405163ddbadd5f60e01b815260040160405180910390fd5b6001600160a01b0383165f908152600182016020526040812054906001600160601b038216900361040d5761040d82856108d4565b5f5b835181101561053e575f84828151811061042b5761042b610cc1565b6020908102919091018101516001600160e01b031981165f908152918690526040909120549091506001600160a01b0316801561048c5760405163501e70c760e01b81526001600160e01b0319831660048201526024015b60405180910390fd5b6001600160e01b031982165f8181526020878152604080832080546001600160a01b03908116600160a01b6001600160601b038c16021782558c168085526001808c0185529285208054938401815585528385206008840401805463ffffffff60079095166004026101000a948502191660e08a901c94909402939093179092559390925287905281546001600160a01b0319161790558361052d81610e35565b9450506001909201915061040f9050565b5050505050565b5f8151116105665760405163092d2fe560e41b815260040160405180910390fd5b5f5160206110865f395f51905f526001600160a01b03831661059b5760405163ddbadd5f60e01b815260040160405180910390fd5b6001600160a01b0383165f908152600182016020526040812054906001600160601b03821690036105d0576105d082856108d4565b5f5b835181101561053e575f8482815181106105ee576105ee610cc1565b6020908102919091018101516001600160e01b031981165f908152918690526040909120549091506001600160a01b03908116908716810361064f57604051631c04188b60e31b81526001600160e01b031983166004820152602401610483565b61065a858284610924565b6001600160e01b031982165f8181526020878152604080832080546001600160a01b03908116600160a01b6001600160601b038c16021782558c168085526001808c0185529285208054938401815585528385206008840401805463ffffffff60079095166004026101000a948502191660e08a901c94909402939093179092559390925287905281546001600160a01b031916179055836106fb81610e35565b945050600190920191506105d29050565b5f81511161072d5760405163092d2fe560e41b815260040160405180910390fd5b5f5160206110865f395f51905f526001600160a01b0383161561076357604051631be65fe560e21b815260040160405180910390fd5b5f5b82518110156107c7575f83828151811061078157610781610cc1565b6020908102919091018101516001600160e01b031981165f908152918590526040909120549091506001600160a01b03166107bd848284610924565b5050600101610765565b50505050565b6001600160a01b0382166107ff578051156107fb5760405163c21b1ab760e01b815260040160405180910390fd5b5050565b80515f0361082057604051633011e86160e21b815260040160405180910390fd5b6001600160a01b03821630146108395761083982610c55565b5f5f836001600160a01b0316836040516108539190610e60565b5f60405180830381855af49150503d805f811461088b576040519150601f19603f3d011682016040523d82523d5f602084013e610890565b606091505b5091509150816107c7578051156108bb578060405162461bcd60e51b81526004016104839190610e76565b604051633a18f8dd60e01b815260040160405180910390fd5b6108dd81610c55565b6002820180546001600160a01b039092165f8181526001948501602090815260408220860185905594840183559182529290200180546001600160a01b0319169091179055565b6001600160a01b03821661095657604051622902d360e91b81526001600160e01b031982166004820152602401610483565b306001600160a01b0383160361098b5760405163069731c560e41b81526001600160e01b031982166004820152602401610483565b6001600160e01b031981165f90815260208481526040808320546001600160a01b0386168452600180880190935290832054600160a01b9091046001600160601b031692916109d991610e8f565b9050808214610ac8576001600160a01b0384165f9081526001860160205260408120805483908110610a0d57610a0d610cc1565b5f91825260208083206008830401546001600160a01b038916845260018a019091526040909220805460079092166004026101000a90920460e01b925082919085908110610a5d57610a5d610cc1565b5f91825260208083206008830401805463ffffffff60079094166004026101000a938402191660e09590951c929092029390931790556001600160e01b03199290921682528690526040902080546001600160a01b0316600160a01b6001600160601b038516021790555b6001600160a01b0384165f9081526001860160205260409020805480610af057610af0610ea8565b5f828152602080822060085f1990940193840401805463ffffffff600460078716026101000a0219169055919092556001600160e01b0319851682528690526040812081905581900361053e5760028501545f90610b5090600190610e8f565b6001600160a01b0386165f908152600180890160205260409091200154909150808214610bfb575f876002018381548110610b8d57610b8d610cc1565b5f918252602090912001546002890180546001600160a01b039092169250829184908110610bbd57610bbd610cc1565b5f91825260208083209190910180546001600160a01b0319166001600160a01b03948516179055929091168152600189810190925260409020018190555b86600201805480610c0e57610c0e610ea8565b5f828152602080822083015f1990810180546001600160a01b03191690559092019092556001600160a01b0388168252600189810190915260408220015550505050505050565b803b806107fb57604051633c11a9c560e21b815260040160405180910390fd5b80516001600160a01b0381168114610c8b575f5ffd5b919050565b5f5f60408385031215610ca1575f5ffd5b610caa83610c75565b9150610cb860208401610c75565b90509250929050565b634e487b7160e01b5f52603260045260245ffd5b634e487b7160e01b5f52602160045260245ffd5b5f81518084528060208401602086015e5f602082860101526020601f19601f83011685010191505092915050565b5f606082016060835280865180835260808501915060808160051b8601019250602088015f5b82811015610df257868503607f19018452815180516001600160a01b031686526020810151606087019060038110610d8357634e487b7160e01b5f52602160045260245ffd5b8060208901525060408201519150606060408801528082518083526080890191506020840193505f92505b80831015610dda5783516001600160e01b03191682526020938401936001939093019290910190610dae565b50965050506020938401939190910190600101610d3d565b5050506001600160a01b0386166020850152508281036040840152610e178185610ce9565b9695505050505050565b634e487b7160e01b5f52601160045260245ffd5b5f6001600160601b0382166002600160601b03198101610e5757610e57610e21565b60010192915050565b5f82518060208501845e5f920191825250919050565b602081525f610e886020830184610ce9565b9392505050565b81810381811115610ea257610ea2610e21565b92915050565b634e487b7160e01b5f52603160045260245ffd5b6101bd80610ec95f395ff3fe608060405260043610610021575f3560e01c806354353f2f146100dd57610028565b3661002857005b5f80356001600160e01b03191681527fc8fcad8db84d3cc18b4c41d551ea0ee66dd599cde068d998e57d5e09332c131c602081905260409091205481906001600160a01b0316806100bf5760405162461bcd60e51b815260206004820181905260248201527f4469616d6f6e643a2046756e6374696f6e20646f6573206e6f74206578697374604482015260640160405180910390fd5b365f5f375f5f365f845af43d5f5f3e8080156100d9573d5ff35b3d5ffd5b3480156100e8575f5ffd5b506100f1610107565b6040516100fe9190610127565b60405180910390f35b60606040518060600160405280602b815260200161015d602b9139905090565b602081525f82518060208401528060208501604085015e5f604082850101526040601f19601f8301168401019150509291505056fe5448495320495320414e204558414d504c45204f4620414e20494d4d555441424c452046554e4354494f4ea264697066735822122026c512f6836fd61334e14a0eca4d0efaa9e8c8491b2825c8be82f75df2414dd564736f6c634300081c0033c8fcad8db84d3cc18b4c41d551ea0ee66dd599cde068d998e57d5e09332c131c","linkReferences":{}},"methodIdentifiers":{"example()":"54353f2f"},"id":0}