{"abi":[{"type":"function","name":"getAge","inputs":[],"outputs":[{"name":"age_","type":"uint8","internalType":"uint8"}],"stateMutability":"view"},{"type":"function","name":"getName","inputs":[],"outputs":[{"name":"name_","type":"string","internalType":"string"}],"stateMutability":"view"},{"type":"function","name":"setAge","inputs":[{"name":"_age","type":"uint8","internalType":"uint8"}],"outputs":[],"stateMutability":"nonpayable"},{"type":"function","name":"setName","inputs":[{"name":"_name","type":"string","internalType":"string"}],"outputs":[],"stateMutability":"nonpayable"}],"bytecode":{"object":"0x6080604052348015600e575f5ffd5b506103f28061001c5f395ff3fe608060405234801561000f575f5ffd5b506004361061004a575f3560e01c806317d7de7c1461004e5780635b0c8d701461006c578063967e6e6514610092578063c47f0027146100a7575b5f5ffd5b6100566100ba565b604051610063919061015a565b60405180910390f35b61009061007a36600461018f565b6001805460ff191660ff92909216919091179055565b005b60015460405160ff9091168152602001610063565b6100906100b53660046101ca565b61014b565b60605f5f0180546100ca9061027d565b80601f01602080910402602001604051908101604052809291908181526020018280546100f69061027d565b80156101415780601f1061011857610100808354040283529160200191610141565b820191905f5260205f20905b81548152906001019060200180831161012457829003601f168201915b5050505050905090565b5f6101568282610301565b5050565b602081525f82518060208401528060208501604085015e5f604082850101526040601f19601f83011684010191505092915050565b5f6020828403121561019f575f5ffd5b813560ff811681146101af575f5ffd5b9392505050565b634e487b7160e01b5f52604160045260245ffd5b5f602082840312156101da575f5ffd5b813567ffffffffffffffff8111156101f0575f5ffd5b8201601f81018413610200575f5ffd5b803567ffffffffffffffff81111561021a5761021a6101b6565b604051601f8201601f19908116603f0116810167ffffffffffffffff81118282101715610249576102496101b6565b604052818152828201602001861015610260575f5ffd5b816020840160208301375f91810160200191909152949350505050565b600181811c9082168061029157607f821691505b6020821081036102af57634e487b7160e01b5f52602260045260245ffd5b50919050565b601f8211156102fc57805f5260205f20601f840160051c810160208510156102da5750805b601f840160051c820191505b818110156102f9575f81556001016102e6565b50505b505050565b815167ffffffffffffffff81111561031b5761031b6101b6565b61032f81610329845461027d565b846102b5565b6020601f821160018114610361575f831561034a5750848201515b5f19600385901b1c1916600184901b1784556102f9565b5f84815260208120601f198516915b828110156103905787850151825560209485019460019092019101610370565b50848210156103ad57868401515f19600387901b60f8161c191681555b50505050600190811b0190555056fea26469706673582212201c7a6ef3d23a37464d6f0f85cdf726e5c15f6c7d8ba53c8de9770318d49b8b6e64736f6c634300081c0033","linkReferences":{}},"methodIdentifiers":{"getAge()":"967e6e65","getName()":"17d7de7c","setAge(uint8)":"5b0c8d70","setName(string)":"c47f0027"},"id":4}